:020000040800F2
:10000000008001204D1000089D0F0008A30F00087C
:10001000A90F0008AF0F0008B50F0008000000008E
:10002000000000000000000000000000BB0F0008FE
:10003000C90F000800000000D70F0008E50F0008F6
:100040009D1000089D1000089D1000089D100008DC
:100050009D1000089D100008F10F0008FF0F000818
:100060000D1000081B1000089D1000089D100008CE
:100070009D1000089D1000089D1000089D100008AC
:100080009D1000089D1000089D1000080000000051
:100090000000000000000000000000009D100008AB
:1000A0009D1000089D1000089D1000089D1000087C
:1000B0009D1000089D1000089D1000089D1000086C
:1000C0009D1000089D1000089D1000089D1000085C
:1000D0009D1000089D1000089D1000080000000001
:1000E0009D1000089D1000089D10000800000000F1
:1000F0000000000000000000000000009D1000084B
:10010000000000009D1000089D1000089D100008D0
:1001100000000000000000000000000000000000DF
:100120009D1000089D1000089D1000089D100008FB
:100130009D1000080000000000000000000000000A
:100140000000000000000000000000009D100008FA
:100150009D1000089D1000089D1000089D100008CB
:100160009D1000089D100008000000000000000025
:10017000000000000000000000000000000000007F
:10018000000000009D1000080000000000000000BA
:040190009D100008B6
:1001940010B5054C237833B9044B13B10448AFF3BD
:1001A40000800123237010BD5000002000000000D7
:1001B400AC20000808B5034B1BB103490348AFF357
:1001C400008008BD0000000054000020AC2000089E
:1001D40053B94AB9002908BF00281CBF4FF0FF31AA
:1001E4004FF0FF3000F074B9ADF1080C6DE904CEA6
:1001F40000F006F8DDF804E0DDE9022304B07047FE
:100204002DE9F047089D04468E46002B4DD18A42C5
:10021400944669D9B2FA82F252B101FA02F3C2F1F8
:10022400200120FA01F10CFA02FC41EA030E944089
:100234004FEA1C48210CBEFBF8F61FFA8CF708FBAA
:1002440016E341EA034306FB07F199420AD91CEB82
:10025400030306F1FF3080F01F81994240F21C81B4
:10026400023E63445B1AA4B2B3FBF8F008FB1033FC
:1002740044EA034400FB07F7A7420AD91CEB040431
:1002840000F1FF3380F00A81A74240F20781644401
:10029400023840EA0640E41B00261DB1D440002386
:1002A400C5E900433146BDE8F0878B4209D9002DEA
:1002B40000F0EF800026C5E9000130463146BDE874
:1002C400F087B3FA83F6002E4AD18B4202D38242DE
:1002D40000F2F980841A61EB030301209E46002D8D
:1002E400E0D0C5E9004EDDE702B9FFDEB2FA82F2E2
:1002F400002A40F09280A1EB0C014FEA1C471FFA40
:100304008CFE0126200CB1FBF7F307FB131140EA26
:1003140001410EFB03F0884208D91CEB010103F1F3
:10032400FF3802D2884200F2CB804346091AA4B2B5
:10033400B1FBF7F007FB101144EA01440EFB00FE89
:10034400A64508D91CEB040400F1FF3102D2A645EE
:1003540000F2BB800846A4EB0E0440EA03409CE78D
:10036400C6F12007B34022FA07FC4CEA030C20FA3A
:1003740007F401FA06F31C43F9404FEA1C4900FA5A
:1003840006F3B1FBF9F8200C1FFA8CFE09FB1811D7
:1003940040EA014108FB0EF0884202FA06F20BD94A
:1003A4001CEB010108F1FF3A80F08880884240F29A
:1003B4008580A8F102086144091AA4B2B1FBF9F0DE
:1003C40009FB101144EA014100FB0EFE8E4508D9D9
:1003D4001CEB010100F1FF346CD28E456AD902385E
:1003E400614440EA0840A0FB0294A1EB0E01A14243
:1003F400C846A64656D353D05DB1B3EB080261EBB1
:100404000E0101FA07F722FA06F3F1401F43C5E98A
:10041400007100263146BDE8F087C2F12003D840C0
:100424000CFA02FC21FA03F3914001434FEA1C4702
:100434001FFA8CFEB3FBF7F007FB10360B0C43EAF4
:10044400064300FB0EF69E4204FA02F408D91CEBA4
:10045400030300F1FF382FD29E422DD902386344A2
:100464009B1B89B2B3FBF7F607FB163341EA034142
:1004740006FB0EF38B4208D91CEB010106F1FF3891
:1004840016D28B4214D9023E6144C91A46EA004688
:1004940038E72E46284605E70646E3E61846F8E61A
:1004A4004B45A9D2B9EB020864EB0C0E0138A3E763
:1004B4004646EAE7204694E74046D1E7D0467BE744
:1004C400023B614432E7304609E76444023842E7BC
:1004D400704700BF80B500AF01F024FD00F002FCBE
:1004E40000F06CFC00F0A8FA024B1B68184600F000
:1004F400BDFAF9E77000002080B584B002AF03466E
:10050400FB8001F075FD03463C4A13603B4B1A68BF
:100514003B4B1B68D31AB3F5FA7F6AD900F062FA31
:10052400802000F0F1F9F8880A23009303230222C3
:10053400012100F06FF9402000F0E6F9F8880B2360
:10054400009306230522042100F064F9202000F022
:10055400DBF9F8880C23009309230822072100F013
:1005640059F9102000F0D0F9F8880D2300930E23D8
:1005740000220F2100F04EF9224B1B680E2B0DD1E7
:10058400214B1B68214A13601E4B00221A60204B2A
:1005940000221A601C4B00221A6015E01B4B1B68DA
:1005A4001C4A82FB03129115DA178A1A1A4901FBB5
:1005B40002F29A1A13469B0013445B001A46114B2D
:1005C4001B681344114A136000F036FA134B4FF4BE
:1005D40004125A60114B01229A601049104800F02D
:1005E4006FFE0E490F4800F06BFE044B1B68044A73
:1005F400136000BF0837BD4680BD00BF88000020DF
:10060400840000207400002080000020700000207E
:100614007C0000206BCA5F6B809698008C000020E1
:10062400000002400004024080B400AF0A4B1A6884
:100634000A4B1B681344084A1360084B00221A60D3
:10064400074B00221A60074B0A221A6000BFBD46FE
:100654005DF8047B704700BF7C0000207000002020
:10066400740000207800002080B400AF0A4B1A68A0
:100674000A4B1B68D31A094A1360074B00221A60FD
:10068400074B00221A60074B0B221A6000BFBD46BD
:100694005DF8047B704700BF700000207C000020E0
:1006A400740000207800002080B400AF0E4B1B685B
:1006B400002B02D10C4B01221A600B4B1B680B4A16
:1006C400126802FB03F3084A1360084B00221A6005
:1006D400074B00221A60074B0C221A6000BFBD466C
:1006E4005DF8047B704700BF7C0000207000002090
:1006F400740000207800002080B400AF0F4B1B680A
:10070400002B04D10E4B1B680C4A136007E00B4B03
:100714001A680B4B1B6892FBF3F3084A1360084BEF
:1007240000221A60074B00221A60074B0D221A6040
:1007340000BFBD465DF8047B704700BF7C0000200D
:1007440070000020740000207800002080B400AF06
:100754001D4B0E221A601D4B1B680A3B032B2DD820
:1007640001A252F823F000BF7D0700088D0700089E
:100774009D070008AF070008154B1A68154B1B6846
:100784001344154A136019E0124B1A68104B1B6886
:10079400D31A114A136011E00D4B1B680D4A1268FD
:1007A40002FB03F30C4A136008E00A4B1A68084B77
:1007B4001B6892FBF3F3084A136000BF00BFBD46F9
:1007C4005DF8047B704700BF7400002078000020AF
:1007D400700000207C0000208000002080B400AF66
:1007E400084B00221A60084B00221A60074B0022B3
:1007F4001A60074B00221A6000BFBD465DF8047BF7
:10080400704700BF70000020740000207C000020AE
:100814008000002080B584B000AFB9607A603B608E
:100824000346FB81FB89013B072B63D801A252F8E5
:1008340023F000BF5908000891080008F9080008CF
:10084400B3080008F9080008F9080008F9080008C6
:10085400C90800080121294800F0B6FE0346002B10
:1008640041D1BB690A2B01D1FFF7DEFEBB690B2B1B
:1008740001D1FFF7F9FEBB690C2B01D1FFF714FF7F
:10088400BB690D2B2FD1FFF737FF2CE002211B484A
:1008940000F09AFE0346002B27D13B680E2B02D1B1
:1008A400FFF754FF21E0164A3B6813601DE0042162
:1008B400144800F089FE0346002B18D1104A7B68C7
:1008C400136014E008210F4800F07EFE0346002B5D
:1008D4000FD1BB680F2B02D1FFF780FF09E0084A54
:1008E400BB68136005E000BF04E000BF02E000BF86
:1008F40000E000BF00BF1037BD4680BD00000240CD
:10090400740000200004024080B582B000AF0346AA
:10091400FB80FB88802B0AD0802B5CDC402B1BD017
:10092400402B58DC102B41D0202B2AD053E000223E
:1009340080212B4800F060FE01224021284800F06D
:100944005BFE01222021264800F056FE01221021E0
:10095400234800F051FE3EE001228021204800F0AF
:100964004BFE002240211E4800F046FE01222021B9
:100974001B4800F041FE01221021194800F03CFE02
:1009840029E001228021164800F036FE0122402190
:10099400134800F031FE00222021114800F02CFE03
:1009A400012210210E4800F027FE14E001228021CC
:1009B4000B4800F021FE01224021094800F01CFEF2
:1009C40001222021064800F017FE002210210448CD
:1009D40000F012FE00BF00BF0837BD4680BD00BF57
:1009E4000000024080B500AF104B03221A600F4B89
:1009F40000225A600D4B01229A600C4B0022DA60EF
:100A04000A490B4800F05CFC084B0C221A60074BA7
:100A140000225A60054B01229A60044B0022DA60DE
:100A24000249044800F04CFC00BF80BD8C0000204B
:100A3400000002400004024080B500AF0022802183
:100A4400094800F0D9FD00224021074800F0D4FDF8
:100A540000222021044800F0CFFD0022102102488A
:100A640000F0CAFD00BF80BD0000024080B58EB01A
:100A740004AF78607A684F4B83FB02139910D31745
:100A8400C91A0B469B000B445B00D31A7B627A683D
:100A9400494B83FB02135911D317CB1A642101FB71
:100AA40003F3D31A434A82FB03129210DB17D31ABF
:100AB4003B627A68414B83FB02139911D317CB1A1B
:100AC4004FF47A7101FB03F3D31A3B4A82FB0312FE
:100AD4005211DB17D31AFB617A68394B83FB02137B
:100AE4001913D317CB1A42F2107101FB03F3D31A73
:100AF400324A82FB03129211DB17D31ABB617A6864
:100B0400304B83FB02135913D317CB1A2E4901FB25
:100B140003F3D31A2A4A82FB03121213DB17D31AE4
:100B24007B617A68294B83FB02139914D317CB1A80
:100B3400274901FB03F3D31A224A82FB03125213FF
:100B4400DB17D31A3B617A68224B83FB0213991596
:100B5400D317CB1A204901FB03F3D31A1B4A82FB98
:100B640003129214DB17D31AFB607A681B4B83FBC6
:100B740002135916D317CB1A194901FB03F3D31ADD
:100B8400144A82FB03129215DB17D31ABB607B6AEB
:100B940003933B6A0293FB690193BB6900937B69EE
:100BA4003A69F968B86800F01DF800BF2837BD46F7
:100BB40080BD00BF676666661F85EB51D34D62102A
:100BC400AD8BDB6889B5F814A086010083DE1B4376
:100BD40040420F006BCA5F6B80969800893BE655D4
:100BE40000E1F50580B584B000AFF860B9607A60C3
:100BF4003B60324A7B6A52F82320314B1B681A440B
:100C0400304B5A61012001F0FFF92C4A3B6A52F83B
:100C140023202D4B1B681A442A4B5A61012001F0F2
:100C2400F3F9264AFB6952F82320284B1B681A441F
:100C3400244B5A61012001F0E7F9204ABB6952F8BC
:100C44002320234B1B681A441E4B5A61012001F0D8
:100C5400DBF91A4A3B6852F823201E4B1B681A44DE
:100C6400184B5A61012001F0CFF9144A7B6852F8FD
:100C74002320194B1B681A44124B5A61012001F0BE
:100C8400C3F90E4ABB6852F82320144B1B681A445C
:100C94000C4B5A61012001F0B7F9084AFB6852F87D
:100CA40023200F4B1B681A44064B5A61012001F0A4
:100CB400ABF900BF1037BD4680BD00BF1C0000204B
:100CC4006C000020000802401800002014000020DE
:100CD400100000200C000020080000200400002068
:100CE4000000002080B594B000AF07F1200330224B
:100CF4000021184601F0D0F907F10C0300221A6014
:100D04005A609A60DA601A610023BB60294B1B6C3D
:100D1400284A43F080531364264B1B6C03F0805322
:100D2400BB60BB6800237B60234B1B6823F44043F8
:100D3400214A43F4004313601F4B1B6803F44043F0
:100D44007B607B6802233B620123FB6210233B63CD
:100D54000223BB630023FB6310233B644FF4A8739B
:100D64007B640423BB640723FB6407F12003184658
:100D740000F074FC0346002B01D000F0DFF80F23D1
:100D8400FB6002233B6100237B614FF48053BB6112
:100D94000023FB6107F10C030221184600F0D6FE84
:100DA4000346002B01D000F0C9F800BF5037BD4600
:100DB40080BD00BF003802400070004080B58AB09A
:100DC40000AF07F1140300221A605A609A60DA60D7
:100DD4001A6100233B61554B1B6B544A43F00403D7
:100DE4001363524B1B6B03F004033B613B69002309
:100DF400FB604E4B1B6B4D4A43F0800313634B4B1C
:100E04001B6B03F08003FB60FB680023BB60474B54
:100E14001B6B464A43F001031363444B1B6B03F003
:100E24000103BB60BB6800237B60404B1B6B3F4AE4
:100E340043F0020313633D4B1B6B03F002037B601F
:100E44007B6800227F213A4800F0D6FB0022F02183
:100E5400384800F0D1FB7F237B610123BB61002371
:100E6400FB6100233B6207F114031946304800F08C
:100E740027FA03237B614FF44413BB610123FB6115
:100E840007F1140319462B4800F01AFA0C237B616E
:100E94000223BB610023FB6100233B6207237B62C7
:100EA40007F114031946234800F00AFAF0237B6182
:100EB4000123BB610023FB6100233B6207F11403A0
:100EC40019461C4800F0FCF90C237B614FF44413D1
:100ED400BB610123FB6107F114031946164800F0B6
:100EE400EFF900220021062000F0B3F9062000F0FB
:100EF400CCF900220021072000F0ABF9072000F014
:100F0400C4F900220021082000F0A3F9082000F011
:100F1400BCF900220021092000F09BF9092000F00F
:100F2400B4F900BF2837BD4680BD00BF0038024079
:100F340000080240000002400004024080B400AFF8
:100F440072B600BFFEE7000080B582B000AF002398
:100F54007B60104B5B6C0F4A43F4804353640D4B2E
:100F64005B6C03F480437B607B6800233B60094B2C
:100F74001B6C084A43F080531364064B1B6C03F04C
:100F840080533B603B68072000F058F900BF0837E6
:100F9400BD4680BD0038024080B400AFFEE780B497
:100FA40000AFFEE780B400AFFEE780B400AFFEE719
:100FB40080B400AFFEE780B400AF00BFBD465DF86B
:100FC400047B704780B400AF00BFBD465DF8047B6E
:100FD400704780B400AF00BFBD465DF8047B704726
:100FE40080B500AF00F0F0FF00BF80BD80B500AF5A
:100FF400012000F01BFB00BF80BD80B500AF0220C4
:1010040000F014FB00BF80BD80B500AF042000F0E9
:101014000DFB00BF80BD80B500AF082000F006FBCB
:1010240000BF80BD80B400AF064BD3F88830054ABA
:1010340043F47003C2F8883000BFBD465DF8047BFA
:10104400704700BF00ED00E0DFF834D00D480E49D2
:101054000E4A002302E0D458C4500433C4188C420E
:10106400F9D30B4A0B4C002301E013600432A24273
:10107400FBD3FFF7D7FF00F0EBFFFFF72BFA704726
:10108400008001200000002050000020E42000081F
:1010940050000020A4000020FEE7000080B485B0CA
:1010A40000AF78607B6803F00703FB600C4BDB68E0
:1010B400BB60BA684FF6FF031340BB60FB681A02BB
:1010C400BB68134343F0BF6343F40033BB60044A7B
:1010D400BB68D36000BF1437BD465DF8047B70471E
:1010E40000ED00E080B400AF044BDB681B0A03F0A2
:1010F40007031846BD465DF8047B704700ED00E029
:1011040080B483B000AF0346FB7197F90730002B1E
:101114000BDBFB7903F01F02074997F907305B09E2
:10112400012000FA02F241F8232000BF0C37BD462B
:101134005DF8047B704700BF00E100E080B483B039
:1011440000AF03463960FB7197F90730002B0ADBC7
:101154003B68DAB20C4997F907301201D2B20B445A
:1011640083F800230AE03B68DAB20849FB7903F00C
:101174000F03043B1201D2B20B441A7600BF0C37A2
:10118400BD465DF8047B704700E100E000ED00E03F
:1011940080B489B000AFF860B9607A60FB6803F08E
:1011A4000703FB61FB69C3F10703042B28BF042376
:1011B400BB61FB690433062B02D9FB69033B00E0E6
:1011C40000237B614FF0FF32BB6902FA03F3DA4379
:1011D400BB681A407B699A404FF0FF317B6901FA82
:1011E40003F3D9437B680B40134318462437BD46A9
:1011F4005DF8047B7047000080B582B000AF786072
:101204007B68013BB3F1807F01D301230FE00A4ADD
:101214007B68013B53600F214FF0FF30FFF78EFFD7
:10122400054B00229A60044B07221A6000231846DB
:101234000837BD4680BD00BF10E000E080B582B035
:1012440000AF78607868FFF729FF00BF0837BD4614
:1012540080BD80B586B000AF0346B9607A60FB7389
:1012640000237B61FFF73EFF78617A68B96878698B
:10127400FFF78EFF024697F90F3011461846FFF725
:101284005DFF00BF1837BD4680BD80B582B000AF9A
:101294000346FB7197F907301846FFF731FF00BF8B
:1012A4000837BD4680BD80B582B000AF78607868ED
:1012B400FFF7A2FF034618460837BD4680BD00006D
:1012C40080B489B000AF7860396000237B6100236B
:1012D4003B610023BB610023FB6159E10122FB69EF
:1012E40002FA03F37B613B681B687A6913403B6134
:1012F4003A697B699A4240F048813B685B6803F035
:101304000303012B05D03B685B6803F00303022B46
:1013140030D17B689B68BB61FB695B00032202FAE6
:1013240003F3DB43BA691340BB613B68DA68FB69CA
:101334005B0002FA03F3BA691343BB617B68BA69C1
:101344009A607B685B68BB610122FB6902FA03F364
:10135400DB43BA691340BB613B685B681B0903F05C
:101364000102FB6902FA03F3BA691343BB617B68A8
:10137400BA695A603B685B6803F00303032B17D018
:101384007B68DB68BB61FB695B00032202FA03F341
:10139400DB43BA691340BB613B689A68FB695B0035
:1013A40002FA03F3BA691343BB617B68BA69DA6072
:1013B4003B685B6803F00303022B23D1FB69DA0863
:1013C4007B68083253F82230BB61FB6903F00703E2
:1013D4009B000F2202FA03F3DB43BA691340BB619B
:1013E4003B681A69FB6903F007039B0002FA03F3E5
:1013F400BA691343BB61FB69DA087B680832B969CF
:1014040043F822107B681B68BB61FB695B00032205
:1014140002FA03F3DB43BA691340BB613B685B68C0
:1014240003F00302FB695B0002FA03F3BA69134396
:10143400BB617B68BA691A603B685B6803F440333C
:10144400002B00F0A2800023FB60574B5B6C564AD4
:1014540043F480435364544B5B6C03F48043FB605C
:10146400FB68524AFB699B08023352F82330BB6184
:10147400FB6903F003039B000F2202FA03F3DB432F
:10148400BA691340BB617B68494A934219D07B68AF
:10149400484A934213D07B68474A93420DD07B68F5
:1014A400464A934207D07B68454A934201D10423BC
:1014B40008E0072306E0032304E0022302E00123FB
:1014C40000E00023FA6902F0030292009340BA6933
:1014D4001343BB613549FB699B080233BA6941F880
:1014E4002320384B9B68BB613B69DB43BA691340DB
:1014F400BB613B685B6803F48013002B03D0BA69BB
:101504003B691343BB612F4ABB6993602D4BDB6876
:10151400BB613B69DB43BA691340BB613B685B68F1
:1015240003F40013002B03D0BA693B691343BB6176
:10153400244ABB69D360234B5B68BB613B69DB43D3
:10154400BA691340BB613B685B6803F40033002B4A
:1015540003D0BA693B691343BB611A4ABB69536040
:10156400184B1B68BB613B69DB43BA691340BB6121
:101574003B685B6803F48033002B03D0BA693B6992
:101584001343BB610F4ABB691360FB690133FB6101
:10159400FB690F2B7FF6A2AE00BF00BF2437BD4608
:1015A4005DF8047B704700BF0038024000380140FA
:1015B400000002400004024000080240000C024007
:1015C40000100240003C014080B485B000AF786058
:1015D4000B467B807B681A697B881340002B02D002
:1015E4000123FB7301E00023FB73FB7B18461437D4
:1015F400BD465DF8047B704780B483B000AF78606B
:101604000B467B8013467B707B78002B03D07A8853
:101614007B689A6103E07B881A047B689A6100BF47
:101624000C37BD465DF8047B7047000080B582B07E
:1016340000AF0346FB80084B5A69FB881340002B1C
:1016440006D0054AFB885361FB881846FEF754FF11
:1016540000BF0837BD4680BD003C014080B586B060
:1016640000AF78607B68002B01D1012367E27B68BF
:101674001B6803F00103002B75D0884B9B6803F0B3
:101684000C03042B0CD0854B9B6803F00C03082B34
:1016940012D1824B5B6803F48003B3F5800F0BD146
:1016A4007E4B1B6803F40033002B5BD07B685B68C4
:1016B400002B57D1012342E27B685B68B3F5803F7E
:1016C40006D1764B1B68754A43F4803313601DE0E2
:1016D4007B685B68B3F5A02F0CD1704B1B686F4A15
:1016E40043F4802313606D4B1B686C4A43F48033CE
:1016F40013600BE0694B1B68684A23F48033136062
:10170400664B1B68654A23F4802313607B685B681F
:10171400002B13D000F06CFC386108E000F068FC8A
:1017240002463B69D31A642B01D9032307E25B4BBE
:101734001B6803F40033002BF0D014E000F058FCD5
:10174400386108E000F054FC02463B69D31A642B6C
:1017540001D90323F3E1514B1B6803F40033002B3D
:10176400F0D100E000BF7B681B6803F00203002B8C
:1017740063D04A4B9B6803F00C03002B0BD0474B00
:101784009B6803F00C03082B1CD1444B5B6803F4E7
:101794008003002B16D1414B1B6803F00203002B7E
:1017A40005D07B68DB68012B01D00123C7E13B4BEB
:1017B4001B6823F0F8027B681B69DB00374913437D
:1017C4000B603AE07B68DB68002B20D0344B0122AD
:1017D4001A6000F00DFC386108E000F009FC0246D4
:1017E4003B69D31A022B01D90323A8E12B4B1B68B5
:1017F40003F00203002BF0D0284B1B6823F0F802FF
:101804007B681B69DB00254913430B6015E0244BFF
:1018140000221A6000F0ECFB386108E000F0E8FBFD
:1018240002463B69D31A022B01D9032387E11B4BE0
:101834001B6803F00203002BF0D17B681B6803F0E4
:101844000803002B36D07B685B69002B16D0154B40
:1018540001221A6000F0CCFB386108E000F0C8FBFC
:1018640002463B69D31A022B01D9032367E10B4BD0
:101874005B6F03F00203002BF0D01BE0094B002246
:101884001A6000F0B5FB38610EE000F0B1FB0246CF
:101894003B69D31A022B07D9032350E100380240D5
:1018A40000004742800E4742884B5B6F03F00203FF
:1018B400002BEAD17B681B6803F00403002B00F0C3
:1018C40097800023FB75814B1B6C03F08053002B26
:1018D4000FD10023BB607D4B1B6C7C4A43F08053CB
:1018E40013647A4B1B6C03F08053BB60BB68012309
:1018F400FB75774B1B6803F48073002B18D1744B72
:101904001B68734A43F48073136000F071FB386101
:1019140008E000F06DFB02463B69D31A022B01D9A3
:1019240003230CE16A4B1B6803F48073002BF0D093
:101934007B689B68012B06D1644B1B6F634A43F0A1
:10194400010313671CE07B689B68052B0CD15F4B7C
:101954001B6F5E4A43F0040313675C4B1B6F5B4AC7
:1019640043F0010313670BE0584B1B6F574A23F0F6
:1019740001031367554B1B6F544A23F00403136789
:101984007B689B68002B15D000F032FB38610AE0BD
:1019940000F02EFB02463B69D31A41F2883293428F
:1019A40001D90323CBE0494B1B6F03F00203002B47
:1019B400EED014E000F01CFB38610AE000F018FBE4
:1019C40002463B69D31A41F28832934201D9032378
:1019D400B5E03E4B1B6F03F00203002BEED1FB7D01
:1019E400012B05D1394B1B6C384A23F08053136407
:1019F4007B689B69002B00F0A180344B9B6803F04B
:101A04000C03082B5CD07B689B69022B41D1314BC2
:101A140000221A6000F0ECFA386108E000F0E8FAFD
:101A240002463B69D31A022B01D9032387E0274BD3
:101A34001B6803F00073002BF0D17B68DA697B68C4
:101A44001B6A1A437B685B6A9B011A437B689B6A27
:101A54005B08013B1B041A437B68DB6A1B061B49BA
:101A640013434B601B4B01221A6000F0C1FA38612A
:101A740008E000F0BDFA02463B69D31A022B01D9F3
:101A840003235CE0114B1B6803F00073002BF0D0C0
:101A940054E0104B00221A6000F0AAFA386108E002
:101AA40000F0A6FA02463B69D31A022B01D903239C
:101AB40045E0064B1B6803F00073002BF0D13DE0BA
:101AC4007B689B69012B07D1012338E00038024071
:101AD40000700040600047421B4B5B68FB607B6802
:101AE4009B69012B28D0FB6803F480027B68DB69C7
:101AF4009A4221D1FB6803F03F027B681B6A9A4239
:101B04001AD1FA6847F6C07313407A68526A920190
:101B1400934211D1FB6803F440327B689B6A5B08F3
:101B2400013B1B049A4207D1FB6803F070627B6897
:101B3400DB6A1B069A4201D0012300E00023184609
:101B44001837BD4680BD00BF0038024080B584B060
:101B540000AF786039607B68002B01D10123CCE0B1
:101B6400684B1B6803F007033A689A420CD9654B2B
:101B74003A68D2B21A70634B1B6803F007033A68E1
:101B84009A4201D00123B8E07B681B6803F002038A
:101B9400002B20D07B681B6803F00403002B05D0C6
:101BA400594B9B68584A43F4E05393607B681B6825
:101BB40003F00803002B05D0534B9B68524A43F4AF
:101BC40060439360504B9B6823F0F0027B689B68F2
:101BD4004D4913438B607B681B6803F00103002BA2
:101BE40044D07B685B68012B07D1474B1B6803F427
:101BF4000033002B19D101237FE07B685B68022B43
:101C040003D07B685B68032B07D13F4B1B6803F051
:101C14000073002B09D101236FE03B4B1B6803F0D9
:101C24000203002B01D1012367E0374B9B6823F0AB
:101C340003027B685B68344913438B6000F0D8F976
:101C4400F8600AE000F0D4F90246FB68D31A41F2C6
:101C54008832934201D903234FE02B4B9B6803F056
:101C64000C027B685B689B009A42EBD1254B1B6896
:101C740003F007033A689A420CD2224B3A68D2B274
:101C84001A70204B1B6803F007033A689A4201D08C
:101C9400012332E07B681B6803F00403002B08D0A7
:101CA400194B9B6823F4E0527B68DB6816491343A5
:101CB4008B607B681B6803F00803002B09D0124B70
:101CC4009B6823F460427B681B69DB000E49134365
:101CD4008B6000F021F802460B4B9B681B0903F054
:101CE4000F030A49CB5C22FA03F3094A1360094B38
:101CF4001B68184600F038F9002318461037BD4613
:101D040080BD00BF003C024000380240C4200008EF
:101D140044000020480000202DE9B04F94B000AFEB
:101D240000237B640023FB6400233B640023BB6427
:101D3400794B9B6803F00C03082B0DD0082B00F2A1
:101D4400E180002B02D0042B03D0DBE0734BBB6497
:101D5400DBE0734BBB64D8E06F4B5B6803F03F037D
:101D64007B646D4B5B6803F48003002B63D06A4B88
:101D74005B689B090022BB63FA63BB6BC3F3080374
:101D84003B6300237B63D7E90C4522462B464FF087
:101D940000004FF00001590141EAD26150010246AE
:101DA4000B462146511A3961294663EB01037B61D5
:101DB4004FF000024FF00003D7E904AB59468B0102
:101DC400514643EA916351468A015146B2EB0108F8
:101DD400594663EB01094FF000024FF000034FEA4C
:101DE400C90343EA58734FEAC8029046994623460A
:101DF40018EB0303BB602B4649EB0303FB604FF076
:101E040000024FF00003D7E9024529464B02214660
:101E140043EAD15321464A02104619467B6C0022FC
:101E2400BB62FA62D7E90A23FEF7D2F902460B46EF
:101E34001346FB6458E0384B5B689B090022184644
:101E44001146C0F308033B6200237B62D7E908898B
:101E540042464B464FF000004FF00001590141EA61
:101E6400D261500102460B464146B2EB010A494693
:101E740063EB010B4FF000024FF000034FEA8B13AA
:101E840043EA9A634FEA8A12B2EB0A0463EB0B0546
:101E94004FF000024FF00003EB0043EA5473E200FA
:101EA40014461D464346E3183B604B4645EB03038B
:101EB4007B604FF000024FF00003D7E9004529464C
:101EC4008B02214643EA915321468A021046194661
:101ED4007B6C0022BB61FA61D7E90623FEF778F92F
:101EE40002460B461346FB640B4B5B681B0C03F06A
:101EF400030301335B003B64FA6C3B6CB2FBF3F30A
:101F0400BB6402E0054BBB6400BFBB6C1846503792
:101F1400BD46BDE8B08F00BF003802400024F40085
:101F240000127A0080B500AF0E4B1B680D4A43F4D3
:101F3400007313600B4B1B680A4A43F480631360FD
:101F4400084B1B68074A43F4807313600320FFF7B0
:101F540075F9002000F008F8FEF7F6FF0023184694
:101F640080BD00BF003C024080B582B000AF786005
:101F7400124B1A68124B1B7819464FF47A73B3FB51
:101F8400F1F3B2FBF3F31846FFF78DF90346002B88
:101F940001D001230EE07B680F2B0AD80022796858
:101FA4004FF0FF30FFF755F9064A7B6813600023B2
:101FB40000E0012318460837BD4680BD44000020D8
:101FC4004C0000204800002080B400AF064B1B7872
:101FD4001A46064B1B681344044A136000BFBD46EF
:101FE4005DF8047B704700BF4C000020A000002077
:101FF40080B400AF034B1B681846BD465DF8047BF4
:10200400704700BFA000002080B584B000AF7860A6
:10201400FFF7EEFFB8607B68FB60FB68B3F1FF3F3E
:1020240005D00A4B1B781A46FB681344FB6000BFBB
:10203400FFF7DEFF0246BB68D31AFA689A42F7D864
:1020440000BF00BF1037BD4680BD00BF4C0000205C
:1020540070B50D4D0D4C641BA4100026A64209D189
:102064000B4D0C4C00F020F8641BA4100026A64273
:1020740005D170BD55F8043B98470136EEE755F895
:10208400043B98470136F2E7DC200008DC20000816
:10209400DC200008E020000802440346934200D1FB
:1020A400704703F8011BF9E7F8B500BFF8BC08BC9A
:1020B4009E467047F8B500BFF8BC08BC9E46704702
:1020C40000000000000000000102030406070809E4
:0820D40030E1FF7F0100000074
:0420DC00B90100083E
:0420E000950100085E
:1020E400700000006000000050000000400000008C
:1020F400300000002000000010000000000000007C
:1021040001000000020000000300000004000000C1
:1021140005000000060000000700000008000000A1
:10212400090000000024F400100000000100000079
:040000050800104D92
:00000001FF
